:1000000031C100005EC5000031C5000004C500001C
:10001000D7C40000AAC400007DC4000050C4000082
:1000200023C4000050C100004EC100004CC10000BC
:100030004AC1000048C1000046C1000044C10000A0
:1000400042C1000040C100003EC100003CC10000B0
:100050003AC1000038C1000036C100000C94580CB1
:1000600032C1000098C500006DC500002CC1000021
:100070002AC1000028C1000026C1000024C10000E0
:1000800022C1000020C100001EC100001CC10000F0
:100090001AC1000018C1000016C1000014C1000000
:1000A00012C1000010C100000EC100000CC1000010
:1000B0000AC1000008C1000006C1000004C1000020
:1000C00002C1000000C10000FEC00000FCC0000032
:1000D000FAC00000F8C00000F6C00000F4C0000044
:1000E000F2C0000036033B0343034E0350035503A5
:1000F0005D03680376037803090A0C0AFB09FF090C
:10010000050A430A100A140A1A0A1E0A220A280AB1
:100110002C0A300A430A360A3A0A3E0AAC0BB10BE3
:10012000B60BC00BCA0B430CD40BDC0BE40BEE0B71
:10013000F80B020C110C1B0C430C250C2F0C390C6A
:1001400000002100240027002A002D003000330089
:1001500001010000040107010A010000220025003E
:1001600028002B002E0031003400020100000501A0
:1001700008010B01000020002300260029002C00AC
:100180002F003200000100000301060109010505EE
:100190000505070508080808020202020A0A0808FD
:1001A000040404040101010101010101030303032B
:1001B00003030303040707070C0C0C0C0C0C0C0CBA
:1001C0000202020206060606060606060B0B0B0BCB
:1001D0000B0B0B0B010210202008081020401020F0
:1001E00040800201020108040201010204081020FB
:1001F00040808040201008040201800402018040F9
:100200002010080402010804020101020408102061
:100210004080010204081020408000000A0B0209FF
:100220000C0D0E0807030401000000000000000090
:1002300000000000000000000000000000000000BE
:10024000000000000000121110000000000000007B
:10025000000000000000000000000000000000009E
:10026000B8168C1611241FBECFEFD1E2DEBFCDBF72
:1002700000E00CBF13E0A0E0B2E0E6E7F5E300E049
:100280000BBF02C007900D92A438B107D9F725E043
:10029000A4E8B3E001C01D92A934B207E1F711E070
:1002A000C1E3D1E000E006C021970109802FFE01E3
:1002B0000E943018C033D10780E00807A9F70E94D8
:1002C000A20C0C94AA1A9CCE08950895CF92DF92A6
:1002D000EF92FF920F931F93CF93DF936C017A01FC
:1002E0008B01C0E0D0E0CE15DF0581F0D8016D9123
:1002F0008D01D601ED91FC910190F081E02DC601B8
:100300001995892B11F02196EECF7E01C701DF915F
:10031000CF911F910F91FF90EF90DF90CF900895B4
:10032000FC01538D448D252F30E0842F90E0821BFB
:10033000930B541710F0CF96089501970895FC0180
:10034000918D828D981761F0828DDF01A80FB11D0C
:100350005D968C91928D9F5F9F73928F90E0089530
:100360008FEF9FEF0895FC01918D828D981731F0EA
:10037000828DE80FF11D858D90E008958FEF9FEF3E
:100380000895FC01918D228D892F90E0805C9F4F14
:10039000821B91098F73992708958FEB93E0F1DF0A
:1003A00021E0892B09F420E0822F0895FC01848D3F
:1003B000DF01A80FB11DA35ABF4F2C91848D90E08F
:1003C00001968F739927848FA689B7892C93A0896A
:1003D000B1898C91837080648C93938D848D9813F4
:1003E00006C00288F389E02D80818F7D8083089587
:1003F000EF92FF920F931F93CF93DF93EC0181E075
:10040000888F9B8D8C8D981305C0E889F989808130
:1004100085FD25C0F62E0B8D10E00F5F1F4F0F736B
:100420001127E02E8C8DE8120BC00FB607FCFACF17
:10043000E889F989808185FFF5CFCE01B7DFF2CF5A
:100440008B8DFE01E80FF11DE35AFF4FF0829FB73D
:10045000F8940B8FEA89FB89808180620AC09FB77C
:10046000F894EE89FF896083E889F9898081837037
:10047000806480839FBF81E090E0DF91CF911F91E6
:100480000F91FF90EF900895CF93DF93EC01888D4B
:100490008823C1F0EA89FB89808185FD05C0A88990
:1004A000B9898C9186FD0EC00FB607FCF5CF80810F
:1004B00085FFF2CFA889B9898C9185FFEDCFCE0158
:1004C00075DFE8CFDF91CF91089580E090E0892B30
:1004D00019F063DF811125C080E090E0892B41F0A5
:1004E00080E090E0892B21F00E94000081111CC067
:1004F00080E090E0892B41F080E090E0892B21F0B2
:100500000E940000811113C080E090E0892BA1F0CF
:1005100080E090E0892B81F00E94000081110AC0E8
:1005200008950E940000D8CF0E940000E1CF0E94F1
:100530000000EACF0C940000089580E090E0089558
:100540008091840390918503892B31F081E090E0C4
:10055000909385038093840308950E94561A862FF2
:10056000642F0C94BA0AFC018185AED721E0892B57
:1005700009F420E0822F0895CF93DF93EC0160E02F
:100580008E81CAD761E08E81C7D760E08E81C4D7E3
:100590008BE891E00197F1F7DF91CF9108950F93E8
:1005A0001F93CF93DF93EC018B0188859985029788
:1005B000D9F46130710569F024F4672BA9F460E087
:1005C00009C06230710551F06330710569F460E073
:1005D00006C061E08C85A0D761E004C061E08C8535
:1005E0009BD760E08E8598D788859985049771F5AB
:1005F00001301105A1F044F40115110539F561E050
:100600008C858AD760E00FC00230110599F0033065
:100610001105E1F461E08C857FD760E00FC060E0F8
:100620008C857AD761E08E8577D761E0888974D729
:1006300060E00AC060E08C856FD761E08E856CD782
:1006400060E0888969D761E08A8966D7888599855D
:10065000059709F060C00A30110508F05CC0F80188
:100660008827EE58FF4F8F4F0C94301860E08C8530
:1006700053D761E041C060E08C854ED761E08E8544
:100680004BD760E03CC060E08C8546D761E08E854A
:1006900043D760E0888940D761E034C060E001C0A2
:1006A00061E08C8539D761E004C061E08C8534D786
:1006B00060E08E8531D760E007C061E08C852CD783
:1006C00060E08E8529D761E0888926D761E00AC07D
:1006D00061E08C8521D760E08E851ED761E0888936
:1006E0001BD760E08A8918D760E00FC061E001C0C5
:1006F00060E08C8511D760E08E850ED761E0888937
:100700000BD760E08A8908D761E08C89DF91CF91AF
:100710001F910F9101C7DF91CF911F910F91089504
:100720000F931F93CF93DF938C01EB01FC0180812A
:100730009181009739F06881798161157105A1F483
:100740000E94ED1888819981F801918380838A81C4
:100750009B81938382838C819D819583848319827D
:1007600018821B821A820FC0F801428153812C81AA
:100770003D814217530720F30E946C1A8C819D81A2
:10078000F801958384831D821C82DF91CF911F9194
:100790000F9108950F931F93CF93DF93EC018881FE
:1007A0009981009729F02A813B812617370788F421
:1007B0008B016F5F7F4F0E947619009761F09983DC
:1007C00088831B830A832C813D81232B11F4FC0138
:1007D000108281E001C080E0DF91CF911F910F91E5
:1007E0000895EF92FF920F931F93CF93DF93EC0145
:1007F0007B018A01BA01CEDF2881398181110DC0C8
:100800002115310519F0C9010E94ED1819821882CD
:100810001D821C821B821A8206C01D830C83B701B5
:10082000C9010E946C1ACE01DF91CF911F910F91E7
:10083000FF90EF900895FC01808191810C94ED1858
:10084000FC011182108213821282158214826115BA
:10085000710549F0FB0101900020E9F73197AF01E4
:10086000461B570BBECF08951F920F920FB60F92E3
:1008700011240BB60F922F933F934F935F936F9377
:100880007F938F939F93AF93BF93EF93FF93E091E9
:100890000E02F0910F021995FF91EF91BF91AF9168
:1008A0009F918F917F916F915F914F913F912F9188
:1008B0000F900BBE0F900FBE0F901F9018951F92B8
:1008C0000F920FB60F9211240BB60F922F933F93F6
:1008D0004F935F936F937F938F939F93AF93BF9348
:1008E000EF93FF93E0910C02F0910D021995FF91A7
:1008F000EF91BF91AF919F918F917F916F915F9198
:100900004F913F912F910F900BBE0F900FBE0F9004
:100910001F9018951F920F920FB60F9211240BB6CD
:100920000F922F933F934F935F936F937F938F9388
:100930009F93AF93BF93EF93FF93E0910202F091E7
:1009400003021995FF91EF91BF91AF919F918F9104
:100950007F916F915F914F913F912F910F900BBEBF
:100960000F900FBE0F901F9018951F920F920FB609
:100970000F9211240BB60F922F933F934F935F93D7
:100980006F937F938F939F93AF93BF93EF93FF9357
:10099000E0910002F09101021995FF91EF91BF9152
:1009A000AF919F918F917F916F915F914F913F9107
:1009B0002F910F900BBE0F900FBE0F901F901895A8
:1009C0001F920F920FB60F9211240BB60F922F9316
:1009D0003F934F935F936F937F938F939F93AF93C7
:1009E000BF93EF93FF93E0910A02F0910B021995E8
:1009F000FF91EF91BF91AF919F918F917F916F91F7
:100A00005F914F913F912F910F900BBE0F900FBEB2
:100A10000F901F9018951F920F920FB60F921124EE
:100A20000BB60F922F933F934F935F936F937F93E8
:100A30008F939F93AF93BF93EF93FF93E09108023F
:100A4000F09109021995FF91EF91BF91AF919F919C
:100A50008F917F916F915F914F913F912F910F9067
:100A60000BBE0F900FBE0F901F9018951F920F9204
:100A70000FB60F9211240BB60F922F933F934F9303
:100A80005F936F937F938F939F93AF93BF93EF93F6
:100A9000FF93E0910602F09107021995FF91EF9103
:100AA000BF91AF919F918F917F916F915F914F9186
:100AB0003F912F910F900BBE0F900FBE0F901F9084
:100AC00018951F920F920FB60F9211240BB60F922A
:100AD0002F933F934F935F936F937F938F939F9346
:100AE000AF93BF93EF93FF93E0910402F09105025F
:100AF0001995FF91EF91BF91AF919F918F917F9148
:100B00006F915F914F913F912F910F900BBE0F907E
:100B10000FBE0F901F9018956115710579F0FB01BC
:100B200001900020E9F73197AF01461B570BDC011C
:100B3000ED91FC910280F381E02D199480E090E02A
:100B40000895EACF1F920F920FB60F9211240BB6A1
:100B50000F922F933F934F935F936F937F938F9356
:100B60009F93AF93BF93EF93FF938FEB93E01EDCC4
:100B7000FF91EF91BF91AF919F918F917F916F9175
:100B80005F914F913F912F910F900BBE0F900FBE31
:100B90000F901F9018951F920F920FB60F9211246D
:100BA0000BB60F922F938F939F93EF93FF93E09148
:100BB000CF03F091D0038081E091D503F091D6036B
:100BC00082FD12C090818091D8038F5F8F73209136
:100BD000D903821751F0E091D803F0E0E154FC4FC3
:100BE000958F8093D80301C08081FF91EF919F91F1
:100BF0008F912F910F900BBE0F900FBE0F901F90F3
:100C00001895CF92DF92EF92FF920F931F93CF939D
:100C1000DF936C017C0187E0E80EF11CC0E0D0E0BE
:100C2000062F10E0B8010C2E02C0759567950A9446
:100C3000E2F76170F70181917F016ED42196C43093
:100C4000D10581F7C601DF91CF911F910F91FF90E0
:100C5000EF90DF90CF9090CCCF92DF92EF92FF9207
:100C60000F931F93CF93DF93EC01F62E642F8C81AB
:100C700053D48D818F3F11F060E04ED48F850F2DBE
:100C800010E084FF23C06E0187E0C80ED11CE12C68
:100C9000F12CB8010E2C02C0759567950A94E2F705
:100CA0006170F60181916F0137D4FFEFEF1AFF0AEF
:100CB00088E0E816F10469F7CE01DF91CF911F912A
:100CC0000F91FF90EF90DF90CF9056CCB80184E069
:100CD000759567958A95E1F7CE0193DF6F2DCE016B
:100CE000DF91CF911F910F91FF90EF90DF90CF9008
:100CF00088CF41E0B1DF81E090E008958F929F922C
:100D0000AF92BF92CF92DF92EF92FF920F931F9319
:100D1000CF93DF93EC018B0177FF04C000271127ED
:100D2000061B170B161617062CF481E090E099832A
:100D3000888304C0672B11F01982188254E0E52ED5
:100D4000F12C6AE0C62ED12C0115110509F468C0FA
:100D50003FB7F89480913C0590913D05A0913E05E8
:100D6000B0913F0526B5A89B05C02F3F19F001960D
:100D7000A11DB11D3FBFBA2FA92F982F8827820F21
:100D8000911DA11DB11D42E0880F991FAA1FBB1F15
:100D90004A95D1F74E895F89688D798D4C015D0147
:100DA000841A950AA60AB70A4A815B816C817D8103
:100DB00084169506A606B70638F28E8B9F8BA88FF1
:100DC000B98F288139818A859B852130310559F475
:100DD00001969B878A872E813F818217930771F442
:100DE0001B861A860BC0892B21F48E819F819B87DD
:100DF0008A878A859B8501979B878A87015011097D
:100E0000288539858A859B852530310511F4B60101
:100E100001C0B7010E941D18BC01CE01C0DB94CFF8
:100E2000DF91CF911F910F91FF90EF90DF90CF90C6
:100E3000BF90AF909F908F900895AF92BF92CF9246
:100E4000DF92EF92FF920F931F93CF93DF9386E38E
:100E50003BD3019709F03FC01FD5DC01CB019C01BA
:100E6000AD0160E070E080E090E0A090A703B0905A
:100E7000A803C090A903D090AA03E090AB03F09020
:100E8000AC030091AD031091AE030E943818233FCC
:100E9000314041055105610571058105910561F1FB
:100EA00058F1FAD4DC01CB018093A7039093A803F7
:100EB000A093A903B093AA031092AB031092AC03C2
:100EC0001092AD031092AE0382E3FED261E0892B53
:100ED00039F060E005C086E3F7D2892B69F461E060
:100EE00082E3DF91CF911F910F91FF90EF90DF9000
:100EF000CF90BF90AF9010C3DF91CF911F910F9112
:100F0000FF90EF90DF90CF90BF90AF90089584E076
:100F100095E0A8C082E195E0A5C08EE295E0A2C070
:100F200080E295E09FC08EE295E04CD080E295E0B3
:100F300049D082E195E046D084E095E043C00F932C
:100F40001F93CF93DF93EC01862F1B861A8619829D
:100F500018821E8A1F8A188E198EEAE0F0E0FF833D
:100F6000EE836C877D875F874E87398B288B1B8B41
:100F70000A8B61E0FFD261E08E85FCD261E0888956
:100F8000F9D261E08A89F6D21D8A1C8A84E090E059
:100F900099878887DF91CF911F910F910895CF9303
:100FA000DF93EC0169871886DEDA882319F08885DB
:100FB0008360888771D46A837B838C839D83DF9170
:100FC000CF910895CF92DF92EF92FF921F93CF932C
:100FD000DF93EC0188858B7F8887CE01C4DA182FD8
:100FE000888586958170181751F056D46A837B8363
:100FF0008C839D83988582E08927888727C04CD47D
:10100000CA80DB80EC80FD80AB01BC014C195D091E
:101010006E097F098E819F81A0E0B0E048175907D3
:101020006A077B0798F088858170181779F034D4A7
:101030006A837B838C839D83988581E08927846084
:1010400088872AD46A877B878C879D87888582FBDF
:10105000882780F9DF91CF911F91FF90EF90DF906B
:10106000CF900895FC01808580FD04C082FB882715
:1010700080F9089580E008954F925F926F927F9279
:101080008F929F92AF92BF92CF92DF92EF92FF9298
:101090000F931F93CF93DF93CDB7DEB7A1970FB612
:1010A000F894DEBF0FBECDBF8C016B01770FEE0849
:1010B000FF08F7FE2EC0DC01ED91FC910190F0815C
:1010C000E02D6DE219955C0122273327A9012C1927
:1010D0003D094E095F0919A2FE01B1967F019AE010
:1010E000492E512C612C712CCA01B901A301920126
:1010F0000E94EC17605DD7016E937D0121153105CB
:101100004105510589F7BD01C80106DD8A0D9B1D0A
:101110001DC0A701960119A2FE01B1967F018AE0C8
:10112000882E912CA12CB12CCA01B901A5019401E2
:101130000E94EC17605DD7016E937D01211531058A
:101140004105510589F7BD01C801E6DCA1960FB63E
:10115000F894DEBF0FBECDBFDF91CF911F910F91ED
:10116000FF90EF90DF90CF90BF90AF909F908F90C7
:101170007F906F905F904F900895CF93DF93BC0165
:101180008FEB93E079DFEC0161E873E08FEB93E0A4
:10119000C3DC8C0F9D1FDF91CF910895CF93DF9318
:1011A000BC018FEB93E0B8DCEC0161E873E08FEBFE
:1011B00093E0B2DC8C0F9D1FDF91CF910895BC01AD
:1011C0008091AF039091B003EFEAF3E020E030E0CC
:1011D0002F5F3F4F32962830310551F040815181C9
:1011E00064177507ACF74817590794F7CA01F0CF91
:1011F00008950F931F93CF93DF9341155105E1F0AD
:1012000061157105C9F0FC01C481D581209719F4DD
:10121000FB01108211C0415051094C175D0708F4C1
:10122000EA018B01FC0160817181AE01C8010E945D
:10123000811AC00FD11F1882DF91CF911F910F919A
:101240000895FC01248135814091AE045091AF0492
:101250002417350721F5808191816091AA0470914E
:10126000AB04009719F061157105A1F461157105C2
:1012700049F0232BB1F0FB01808190E0919581959D
:1012800091090AC0009769F0232B59F0FC01808175
:1012900090E002C00E94631A21E0892B19F020E03F
:1012A00001C021E0822F0895CF93DF93FC01448198
:1012B0005581608171818FEB93E008D8EC0161E882
:1012C00073E08FEB93E028DC8C0F9D1FDF91CF91B3
:1012D0000895CF93DF932091B4043091B504232B6C
:1012E00079F0FC01C091B004D091B10460817181AA
:1012F000CE010E94901A009719F08C1B9D0B02C022
:101300008FEF9FEFDF91CF91089540E0682F8CE53C
:1013100094E0A2CC81E0F9DF8BE39FE10197F1F744
:101320000895CF92DF92EF92FF920F931F93CF9386
:10133000DF936C01EB017A014617570720F48D2FDC
:10134000EA01E62EF82E63E873E0C60179DA00912F
:10135000B4041091B504C017D107B0F5E016F1063A
:1013600008F48701E091B004F091B104E00FF11F9F
:10137000F08010826091B0047091B1046C0F7D1FF9
:101380006115710559F0FB0101900020E9F73197D3
:10139000AF01461B570BC60124DA0EC0F60180814F
:1013A0009181009711F00E94ED18F60111821082D0
:1013B00015821482138212828091B0049091B1043C
:1013C000FC01E00FF11FF082C601DF91CF911F9168
:1013D0000F91FF90EF90DF90CF90089590E0FC0187
:1013E0003197E231F10508F04EC08827E458FF4FED
:1013F0008F4F0C943018809180008F7703C08091BC
:1014000080008F7D80938000089580918000877F89
:10141000F9CF84B58F7702C084B58F7D84BD0895E0
:101420008091B0008F7703C08091B0008F7D809352
:10143000B0000895809190008F7707C08091900050
:101440008F7D03C080919000877F809390000895E6
:101450008091A0008F7707C08091A0008F7D03C08E
:101460008091A000877F8093A00008958091200143
:101470008F7707C0809120018F7D03C0809120016C
:10148000877F809320010895ECE5F4E080898D7FCB
:10149000808B88603ACF643008F063E090916F04ED
:1014A000691710F06FEF690FE62FF0E0E45AFB4F79
:1014B0009489890F806829CFECE5F4E08089982F22
:1014C0009260908B8A6021CFCF93DF93282F30E0FA
:1014D000F901E65EFD4F8491F901EC52FE4FD49183
:1014E000F901E257FE4FC491CC2389F0811176DFD8
:1014F000EC2FF0E0EE0FFF1FEC58FE4FA591B491DA
:10150000EC91ED2381E090E021F480E002C080E0E6
:1015100090E0DF91CF9108951F93CF93DF93282F11
:1015200030E0F901E65EFD4F8491F901EC52FE4F87
:10153000D491F901E257FE4FC491CC23B9F0162F94
:1015400081114CDFEC2FF0E0EE0FFF1FE65AFE4F4B
:10155000A591B4919FB7F894111104C08C91D095C6
:10156000D82302C0EC91DE2BDC939FBFDF91CF919B
:101570001F910895CF93DF9390E0FC01EC52FE4F52
:101580002491FC01E257FE4F8491882361F190E0A1
:10159000880F991FFC01E05CFE4FC591D491FC01BE
:1015A000E65AFE4FA591B491611109C09FB7F89416
:1015B0008881209582238883EC912E230BC0623092
:1015C00061F49FB7F8948881322F30958323888304
:1015D000EC912E2B2C939FBF06C08FB7F894E88117
:1015E0002E2B28838FBFDF91CF910895CF93DF9368
:1015F000823028F090916B04986090936B048093F4
:101600006F041092700480E48093710480E18093F1
:10161000720480E58093730461E080916004AADF26
:10162000809161048F3F11F061E0A4DF61E080915F
:101630006204A0DFCCE5D4E09E012C5534408091BB
:101640006B0484FD03C084E090E002C088E090E079
:1016500021962817390724F461E08E818BDFECCFC7
:101660008BE39DE00197F1F760E08091600454DF27
:1016700060E08091620450DF809161048F3F11F03F
:1016800060E04ADF80916B0484FD1CC063E08CE560
:1016900094E0B7DACBE4D6E4CE010197F1F763E04A
:1016A0008CE594E0AEDA2197F1F763E08CE594E005
:1016B000A8DA83E592E00197F1F762E08CE594E027
:1016C000A0DA12C0806221DE8BE496E40197F1F784
:1016D00080916B04806219DE83E592E00197F1F757
:1016E00080916B04806211DE80916B0480620DDE5C
:1016F00084E080936C048CE008DE0CDE82E0809352
:101700006D0486E0DF91CF9100CE1F93CF93DF93DE
:10171000182FEB0161E02EDF209711F460E004C088
:10172000CF3FD10531F461E0812FDF91CF911F913F
:10173000F3CEE12FF0E0E65EFD4FE4918E2F90E0D6
:10174000FC013197E231F10508F09DC08827E2578E
:10175000FF4F8F4F0C94301884B5806884BDC7BD8F
:1017600097C084B5806284BDC8BD92C0809180005E
:10177000806880938000D0938900C093880088C0DF
:1017800080918000806280938000D0938B00C09312
:101790008A007EC080918000886080938000D09312
:1017A0008D00C0938C0074C08091B00080688093DD
:1017B000B000C093B3006CC08091B0008062809391
:1017C000B000C093B40064C08091900080688093A2
:1017D0009000D0939900C09398005AC080919000D7
:1017E000806280939000D0939B00C0939A0050C079
:1017F00080919000886080939000D0939D00C0936A
:101800009C0046C08091A00080688093A0008091D9
:10181000A0008F7B8093A000D093A900C093A80064
:1018200037C08091A00080628093A000D093AB006D
:10183000C093AA002DC08091A00088608093A00072
:10184000D093AD00C093AC0023C08091200180688C
:1018500080932001D0932901C093280119C0809161
:101860002001806280932001D0932B01C0932A0134
:101870000FC080912001886080932001D0932D01BA
:10188000C0932C0105C0C038D1050CF04CCF46CF19
:10189000DF91CF911F9108952FB7F8946091410582
:1018A0007091420580914305909144052FBF0895A2
:1018B0001F920F920FB60F9211242F933F938F9385
:1018C0009F93AF93BF938091410590914205A09162
:1018D0004305B09144053091400523E0230F2D3797
:1018E00020F40196A11DB11D05C026E8230F029624
:1018F000A11DB11D209340058093410590934205A1
:10190000A0934305B093440580913C0590913D051B
:10191000A0913E05B0913F050196A11DB11D809398
:101920003C0590933D05A0933E05B0933F05BF91C4
:10193000AF919F918F913F912F910F900FBE0F907C
:101940001F901895CF93DF93CDB7DEB72F970FB6C3
:10195000F894DEBF0FBECDBF789484B5826084BD9D
:1019600084B5816084BD85B5826085BD85B58160A3
:1019700085BD80916E00816080936E001092810021
:1019800080918100826080938100809181008160DC
:10199000809381008091800081608093800080919D
:1019A000B10084608093B1008091B0008160809329
:1019B000B0008091910082608093910080919100AD
:1019C000816080939100809190008160809390006D
:1019D0008091A10082608093A1008091A10081602C
:1019E0008093A1008091A00081608093A0008091ED
:1019F0002101826080932101809121018160809387
:101A000021018091200181608093200180917A00E2
:101A1000846080937A0080917A00826080937A005B
:101A200080917A00816080937A0080917A0080684A
:101A300080937A001092C10061E08CE29BDD60E04F
:101A400070E08CE262DE62E086E194DD62E088E1D3
:101A500091DD62E08AE18EDD62E08CE18BDDE09178
:101A6000CF03F091D00382E08083E091CB03F0912B
:101A7000CC031082E091CD03F091CE038FEC8083F4
:101A80001092D703E091D303F091D40386E08083D2
:101A9000E091D103F091D203808180618083E09155
:101AA000D103F091D203808188608083E091D103DB
:101AB000F091D203808180688083E091D103F0911E
:101AC000D20380818F7D80836CE170E08EE295E0AF
:101AD00066DA66E170E080E295E061DA68E170E084
:101AE00082E195E05CDA6AE170E084E095E057DA43
:101AF00089E190E090933505809334059093270514
:101B000080932605909319058093180590930B05F3
:101B100080930A0582E06ADD61E082E32BDD60E00C
:101B200082E128DD61E086E3F7DC80EA92E09093D1
:101B30000B0280930A02809169008F738093690081
:101B4000EB9A2091F0043091F104032E000C440B29
:101B5000550B812CA7E89A2EA3E9AA2EA3E0BA2E52
:101B6000C501B4010E94C617BAE5CB2ED12CE12CD9
:101B7000F12CCA01B901A70196010E94C617209352
:101B8000EC043093ED044093EE045093EF04209165
:101B9000D6043091D704032E000C440B550BC5011D
:101BA000B4010E94C617CA01B901A70196010E949B
:101BB000C6172093D2043093D3044093D404509397
:101BC000D5042091BC043091BD04032E000C440BBD
:101BD000550BC501B4010E94C617CA01B901A7017E
:101BE00096010E94C6172093B8043093B90440931D
:101BF000BA045093BB04109288031092870310928A
:101C00008603412C17E8512E13E9612E13E0712E43
:101C100080918403909185038230910509F48FC0EF
:101C20008CF4009739F1019711F00C947F1672DB58
:101C300033DE6093A3037093A4038093A503909372
:101C4000A60376C08430910509F4AAC50CF4E0C05F
:101C5000059711F00C947F165DDB1EDE6093A303E5
:101C60007093A4038093A5039093A60303E010E070
:101C70000C9461164FDB02E010E0EE24E394F12CAB
:101C80008091840390918503892B11F00C947F1629
:101C90004AD9D3D860E083E0FEDB6EE372E08CE5E6
:101CA00094E00E94A10561E080E0F5DB69E472E068
:101CB0008CE594E00E94A10530D9882309F382E1E4
:101CC00003DC892B29F4F0928503E0928403D8CFBA
:101CD0001093850300938403D3CFAFD860E080E0F6
:101CE000DADB67E572E08CE594E00E94A10561E033
:101CF00080E0D1DB64E672E08CE594E00E94A1050F
:101D0000C090A303D090A403E090A503F090A60395
:101D100028E5C20E22E0D21EE11CF11CBDDD6C15CF
:101D20007D058E059F0520F0109285031092840397
:101D30008091840390918503019779F2E0C7EADAF4
:101D4000FF24F39403E010E08091840390918503D5
:101D5000029709F0D4C771D860E080E09CDB65E7AA
:101D600072E08CE594E00E94A10561E080E093DBE5
:101D700062E872E08CE594E00E94A10580918803FE
:101D8000882341F080918703882321F08091860386
:101D9000811129C052D883E197DB892B39F466EF92
:101DA0007FEF8AEE94E00E947E0602C0F0928803E4
:101DB00084E18ADB892B39F466EF7FEF80ED94E0D4
:101DC0000E947E0602C0F092870385E17DDB892BAD
:101DD00039F466EF7FEF86EB94E00E947E06CECF6B
:101DE000F0928603CBCF1093850300938403109267
:101DF0009E0310929D0310929A03109299031092E1
:101E00009C0310929B031092A00310929F039CCFFF
:101E100081DAEAE0BE2E80918403909185030397D6
:101E200009F06DC780D88FEB93E00E94C1011816AE
:101E300019060CF041C48FEB93E00E949F01898347
:101E40001A820091B4041091B5040F5F1F4FB801BE
:101E500080EB94E00E94CA03882399F02091B0049B
:101E60003091B1048091B4049091B504BE016F5FCC
:101E70007F4F820F931F0E946C1A1093B50400933A
:101E8000B40461E972E0CE0101960E9420044D8104
:101E90005E818091B4049091B50484179507C0F1D8
:101EA0008091B0049091B104009791F169817A8199
:101EB0006115710569F10E94731A892B49F563E96F
:101EC00072E0CE0107960E9420042091B404309164
:101ED000B5044B855C8524173507A0F08091B004CC
:101EE0009091B104009771F06F817885611571054B
:101EF00049F0241B350B820F931F0E94631A11E0D7
:101F0000892B09F010E0CE0107960E941B0401C046
:101F100010E0CE0101960E941B04112309F4CCC3EA
:101F200063E972E0CE0101960E942004CE01019681
:101F3000D0D99093B0038093AF03CE0101960E9455
:101F40001B0465E972E0CE0101960E942004CE01D7
:101F50000196BFD99093B2038093B103CE0101964D
:101F60000E941B046BE073E0CE0101960E942004E6
:101F7000CE010196AED99093B4038093B303CE0102
:101F800001960E941B0463E273E0CE0101960E9459
:101F90002004CE0101969DD99093B6038093B5039A
:101FA000CE0101960E941B0468E972E0CE01019601
:101FB0000E942004CE0101968CD99093B80380939F
:101FC000B703CE0101960E941B046BE972E0CE01BB
:101FD00001960E942004CE0101967BD99093BA030A
:101FE0008093B903CE0101960E941B046EE972E052
:101FF000CE0101960E942004CE0101966AD99093E9
:10200000BC038093BB03CE0101960E941B0461EACE
:1020100072E0CE0101960E942004CE01019659D9AA
:102020009093BE038093BD03CE0101960E941B04D2
:1020300064EA72E08FEB93E00E94A10580EB94E0EC
:1020400033D98091B1039091B20318161906B4F5F3
:10205000B6D88C0166EB72E08FEB93E00E94A1058D
:10206000A8014F5F5F4F6091B1037091B2036E5F43
:102070007F4FCE01019655D9BE016F5F7F4F84EA35
:1020800094E00E949003CE0101960E941B044091AF
:10209000A8045091A90465E973E084EA94E0A9D802
:1020A00085E993E04ED79C01295C31092730374000
:1020B00020F49093A00380939F035FD88091B7038F
:1020C0009091B803181619060CF00CC178D88C0141
:1020D00063EC72E08FEB93E00E94A1056091B7037F
:1020E0007091B8036E5F7F4FA801CE01019619D998
:1020F000BE016F5F7F4F8AEA94E00E949003CE0199
:1021000001960E941B048AEA94E0CED880E894E00D
:1021100098D8813009F046C02091F0043091F10444
:10212000032E000C440B550BC301B2012FD7CA017B
:10213000B90128E631E040E050E028D72093EC04D4
:102140003093ED044093EE045093EF042091D604B5
:102150003091D704032E000C440B550BC301B20180
:1021600015D7CA01B90128E631E040E050E00ED7AA
:102170002093D2043093D3044093D4045093D504D5
:102180002091BC043091BD04032E000C440B550B70
:10219000C301B201FBD6CA01B90128E631E040E033
:1021A00050E097C08AE794E04CD8813009F046C0EF
:1021B0002091F0043091F104032E000C440B550BD8
:1021C000C301B201E3D6CA01B90124EB30E040E01B
:1021D00050E0DCD62093EC043093ED044093EE0401
:1021E0005093EF042091D6043091D704032E000CB5
:1021F000440B550BC301B201C9D6CA01B90124EB86
:1022000030E040E050E0C2D62093D2043093D304B3
:102210004093D4045093D5042091BC043091BD0464
:10222000032E000C440B550BC301B201AFD6CA01FB
:10223000B90124EB30E040E050E04BC084E794E08B
:1022400000D8813009F04EC02091F0043091F104A3
:10225000032E000C440B550BC301B20197D6CA01E3
:10226000B9012AE530E040E050E090D62093EC043C
:102270003093ED044093EE045093EF042091D60484
:102280003091D704032E000C440B550BC301B2014F
:102290007DD6CA01B9012AE530E040E050E076D6AB
:1022A0002093D2043093D3044093D4045093D504A4
:1022B0002091BC043091BD04032E000C440B550B3F
:1022C000C301B20163D6CA01B9012AE530E040E09A
:1022D00050E05CD62093B8043093B9044093BA041C
:1022E0005093BB048091B9039091BA031816190654
:1022F00084F50E94DF088C0160ED72E08FEB93E0C3
:102300000E94A105A8014F5F5F4F6091B9037091D2
:10231000BA036E5F7F4FCE01019603D8BE016F5F97
:102320007F4F82E994E00E949003CE0101960E94C3
:102330001B04409196045091970461E973E082E98F
:1023400094E00E94F90881E993E0FBD51C010E940A
:10235000BD088091BB039091BC031816190694F533
:102360000E94DF088C016DED72E08FEB93E00E941C
:10237000A105A8014F5F5F4F6091BB037091BC0343
:102380006E5F7F4FCE0101960E949109BE016F5F83
:102390007F4F8CE894E00E949003CE0101960E944A
:1023A0001B0440919004509191046DE873E08CE817
:1023B00094E00E94F9088DE893E0C3D59E878D874D
:1023C0000E94BD088091BD039091BE0318161906A6
:1023D000A4F50E94DF088C016AEE72E08FEB93E0B7
:1023E0000E94A105A8014F5F5F4F6091BD037091EE
:1023F000BE036E5F7F4FCE0101960E949109BE0120
:102400006F5F7F4F86E894E00E949003CE010196B3
:102410000E941B0440918A0450918B0469E873E088
:1024200086E894E00E94F90889E893E08AD59093C1
:102430009E0380939D030E94BD088091B3039091F9
:10244000B4031816190624F487EF92E00E94CE0810
:102450008091B5039091B6031816190624F48EE006
:1024600093E00E94CE0840E050E066E172E080EB2D
:1024700094E00E94F103121413040CF01DC18D8529
:102480009E85181619060CF017C1E0909903F0907C
:102490009A0300919B0310919C0382159305A4F568
:1024A00086E293E00E94CE08C101801B910B2D852E
:1024B0003E852E193F097901B901BFD56F87A72E37
:1024C0004C01062F172F6C01892B99F4B29EB00195
:1024D000B39E700D112480ED94E00E947E068091E1
:1024E000990390919A03E80EF91EF0929A03E092F4
:1024F00099038F859A2D0E94BD08C4010E94BD08D2
:10250000EE24E394F12C28C08D859E85281639068B
:10251000CCF48E199F099101201B310BB9018DD587
:102520006B018C01892BA9F4B29EB001B39E700D92
:1025300011248AEE94E00E947E0630929C03209241
:102540009B0307C0E12CF12CC12CD12C00E010E042
:1025500003C062E0E62EF12C8090990390909A03DC
:102560002D853E852815390509F47DC080919B0392
:1025700090919C032816390609F456C0281639068E
:1025800024F1812C912C80169106FCF46AE070E015
:102590008AEE94E00E947E0680919B0390919C03BA
:1025A000019690939C0380939B0369ED72E08FEBFF
:1025B00093E00E94A10580919B0390919C030E944F
:1025C000BD083FEF831A930ADECF80919903909163
:1025D0009A032D853E85281739070CF4BDCF812C31
:1025E000912C8C149D040CF0B7CF6AE070E080ED64
:1025F00094E00E947E068091990390919A0301963F
:1026000090939A038093990366EE72E08FEB93E0C8
:102610000E94A1058091990390919A030E94BD08A0
:102620003FEF831A930ADDCF42E0E416F10409F08C
:1026300043C0B09EB001B19E700D112480ED94E0B6
:102640000E947E06080D191D10939A0300939903AA
:1026500066EE72E08FEB93E00E94A10580919903F2
:1026600090919A0321C031E0E316F10401F5BC9C7E
:10267000B001BD9C700D11248AEE94E00E947E068C
:1026800080919B0390919C03C80ED91ED0929C030D
:10269000C0929B0369ED72E08FEB93E00E94A1056D
:1026A00080919B0390919C030E94BD0805C082E02D
:1026B000E816F10409F427C30E948D078823E1F08E
:1026C00060919F037091A0036115710599F0CB0192
:1026D000770FAA0BBB0B9C01AD01285C31094109A6
:1026E0005109AFEFB0E06ED428E037E040E050E0B1
:1026F0004DD4B9018CE209D860E080E00E944B0A19
:1027000065E373E08CE594E00E94A10560919F036E
:102710007091A0038CE594E00E943C0860E08AE0A0
:102720000E944B0A63EF72E08CE594E00E94A105E1
:1027300060919D0370919E038CE594E00E943C089B
:1027400061E080E00E944B0A6AE373E08CE594E06C
:102750000E94A10560919B0370919C038CE594E01D
:102760000E943C0861E08AE00E944B0A66EE72E03B
:102770008CE594E00E94A1056091990370919A0301
:102780008CE594E00E943C080E949007882309F49D
:1027900042CB84E090E0909385038093840339CB0F
:1027A0000E948A091092A00310929F03812C912C01
:1027B00000E010E08091840390918503049709F074
:1027C0009EC20E94930760E080E00E944B0A61E491
:1027D00073E08CE594E00E94A10560919F037091E5
:1027E000A0038CE594E00E943C0860E08AE00E942F
:1027F0004B0A63EF72E08CE594E00E94A1056091C2
:102800009D0370919E038CE594E00E943C0861E07A
:1028100080E00E944B0A6AE373E08CE594E00E943A
:10282000A10560919B0370919C038CE594E00E944C
:102830003C0861E08AE00E944B0A66EE72E08CE59B
:1028400094E00E94A1056091990370919A038CE530
:1028500094E00E943C080E948D078823C1F080917B
:102860009F039091A003892B49F424EF31E030932A
:10287000A00320939F036FEF70E006C01092A003A7
:1028800010929F0360E070E08CE20E94850B0115BE
:10289000110511F40E94440A0E949007882311F048
:1028A00001E010E045E0C42ED12C52E0A52EB12C61
:1028B00001301105E9F40E949307809184039091FF
:1028C0008503019719F40E94440A12C081149104EF
:1028D00031F460E08AE00E944B0A0E945C0A0E9488
:1028E0009007882361F03FEF831A930A02E010E01B
:1028F00025E0C22ED12C34E0A32EB12C79C00E9449
:102900008A078823B1F180919D0390919E030196DF
:10291000873991052CF490939E0380939D0312C0F8
:1029200086E990E090939E0380939D0321E030E040
:102930003093A2032093A103D0928503C092840315
:1029400000E010E0E0909D03F0909E0336E9E3166E
:10295000F10434F46AE070E086EB94E00E947E06B5
:1029600060E08DE00E944B0AB7018CE594E00E9484
:102970003C080E948707882309F49ACF80919D0321
:1029800090919E03019790939E0380939D0397FFE0
:1029900010C010929E0310929D03B092A203A092C9
:1029A000A1030E948A09D0928503C092840300E0AB
:1029B00010E0E0909D03F0909E031E141F0434F479
:1029C00066EF7FEF86EB94E00E947E0660E08DE08C
:1029D0000E944B0AB7018CE594E00E943C0868CF46
:1029E0000E948A0781112CC00E94870781115FC055
:1029F00002301105F1F40E949307809184039091B5
:102A00008503019719F40E94440A13C041E084161B
:102A1000910431F461E080E00E944B0A0E945C0A5C
:102A20000E9490078823E1F28FEF881A980A03E04A
:102A300010E085E0E82EF12C96E0A92EB12C70C0B4
:102A400080919B0390919C030196893C91052CF405
:102A500090939C0380939B0312C028EC30E030934A
:102A60009C0320939B0383E090E09093A2038093C8
:102A7000A103D0928503C092840300E010E0E090AF
:102A80009B03F0909C0398ECE916F10434F46AE09F
:102A900070E08AEE94E00E947E0661E086E00E948B
:102AA0004B0AB7018CE594E00E943C089DCF8091D1
:102AB0009B0390919C03019797FD05C090939C0305
:102AC00080939B030EC010929C0310929B03B092C4
:102AD000A203A092A103D0928503C092840300E0D8
:102AE00010E0E0909B03F0909C031E141F0434F44C
:102AF00066EF7FEF8AEE94E00E947E0661E086E05A
:102B00000E944B0AB7018CE594E00E943C0870CF0C
:102B10000E948A0781112AC00E94870781115DC027
:102B20000330110509F046CE0E949307809184037B
:102B300090918503019719F40E94440A3BCE22E04C
:102B40008216910431F461E08AE00E944B0A0E94EF
:102B50005C0A0E9490078823D9F283E090E090936A
:102B60008503809384030E94440A20CE80919903B8
:102B700090919A0301968D3221E092072CF4909364
:102B80009A038093990310C08CE291E090939A038A
:102B900080939903F092A203E092A103F09285033F
:102BA000E092840300E010E0C0909903D0909A0373
:102BB0009CE2C91691E0D90634F46AE070E080ED39
:102BC00094E00E947E0661E08DE00E944B0AB6010F
:102BD0008CE594E00E943C089FCF809199039091EE
:102BE0009A03019797FD05C090939A0380939903E8
:102BF0000EC010929A0310929903B092A203A09271
:102C0000A103F0928503E092840300E010E0C090FD
:102C10009903D0909A031C141D0434F46AE070E008
:102C20008AEE94E00E947E0661E08DE00E944B0AED
:102C3000B6018CE594E00E943C0872CF0E94930795
:102C400060E082E00E944B0A68E473E08CE594E067
:102C50000E94A10561E084E00E944B0A65E573E0F3
:102C60008CE594E00E94A1058091A1039091A203BC
:102C700083309105D9F16CF185309105D1F18CF556
:102C80006CE573E08CE594E00E94A1050E94440A83
:102C9000C090A303D090A403E090A503F090A603F6
:102CA00028E5C20E22E0D21EE11CF11C0E944C0C51
:102CB0006C157D058E059F0520F01093850300930C
:102CC00084038091840390918503059709F4B6CF1E
:102CD00016C08130910581F00297C1F668E673E075
:102CE000D1CF069799F662E673E0CCCF6FE573E03B
:102CF000C9CF65E673E0C6CF6BE673E0C3CF0E9431
:102D000065020C94080E80919B0390919C032816F9
:102D1000390609F0D1CC8DCC84E794E00E941B04E5
:102D20008AE794E00E941B0480E894E00E941B0460
:102D300086E894E00E941B048CE894E00E941B0447
:102D400082E994E00E941B0488E994E00E941B043D
:102D50008EE994E00E941B0484EA94E00E941B0424
:102D60008AEA94E00E941B0480EB94E00C941B041C
:102D70000F931F93EFEBF3E01382128288EE93E040
:102D8000A0E0B0E084839583A683B7838CE192E0D2
:102D90009183808385EC90E09587848784EC90E034
:102DA0009787868780EC90E0918B808B81EC90E018
:102DB000938B828B82EC90E0958B848B86EC90E0F9
:102DC000978B868B118E128E138E148EECE5F4E0A9
:102DD000138212828EE292E0918380838FE184835A
:102DE0008FEF858381E2868383E2878385E2808714
:102DF00087E2818789E28287138614861586168684
:102E0000178681E00E94F60A63E873E080EB94E0A5
:102E10000E94200463E873E08AEA94E00E942004A0
:102E200063E873E084EA94E00E94200463E873E0BE
:102E30008EE994E00E94200463E873E088E994E05E
:102E40000E94200463E873E082E994E00E94200479
:102E500063E873E08CE894E00E94200463E873E088
:102E600086E894E00E9420046EE673E080E894E037
:102E70000E94200465E773E08AE794E00E94200442
:102E80006BE773E084E794E00E94200405E010E023
:102E900024E030E043E050E062E070E08AEE94E04D
:102EA0000E949F0709E010E028E030E047E050E092
:102EB00066E070E080ED94E00E949F070DE010E076
:102EC0002CE030E04BE050E06AE070E086EB94E00C
:102ED0000E949F07EEE2F5E02AE332E0318320838F
:102EE00012821382148215828AE090E0978386838F
:102EF00010861186E0E2F5E031832083128213828E
:102F0000148215829783868310861186E2E1F5E0AC
:102F100031832083128213821482158297838683E1
:102F200010861186E4E0F5E031832083128213825B
:102F30001482158297838683108611861F910F91C4
:102F40000895FC0188279927E89421912032E9F31C
:102F5000293010F02E30C8F32B3239F02D3231F4F5
:102F6000689403C00BD0820F911D219120532A3009
:102F7000C8F31EF4909581959F4F08957AE0979F2E
:102F8000902D879F802D910D11240895052E97FB7C
:102F900016F400940FD057FD05D01ED007FC02D0C8
:102FA00046F408C050954095309521953F4F4F4FBE
:102FB0005F4F089590958095709561957F4F8F4FE5
:102FC0009F4F08952BD0A59F900DB49F900DA49F67
:102FD000800D911D11240895A1E21A2EAA1BBB1B7E
:102FE000FD010DC0AA1FBB1FEE1FFF1FA217B307D5
:102FF000E407F50720F0A21BB30BE40BF50B661FEB
:10300000771F881F991F1A9469F7609570958095AE
:1030100090959B01AC01BD01CF010895A29FB00125
:10302000B39FC001A39F700D811D1124911DB29FFC
:10303000700D811D1124911D089597FB072E16F424
:10304000009406D077FD08D01CD007FC05D03EF4D4
:10305000909581959F4F0895709561957F4F089544
:10306000EE0FFF1F881F8BBF0790F691E02D19947C
:103070002A193B094C095D096E097F09800B910BE8
:103080000895AA1BBB1B51E107C0AA1FBB1FA617AF
:10309000B70710F0A61BB70B881F991F5A95A9F701
:1030A00080959095BC01CD0108950F931F93CF9308
:1030B000DF938230910510F482E090E0E0914705C3
:1030C000F091480520E030E0A0E0B0E0309719F141
:1030D000408151810281138148175907C8F0841734
:1030E000950769F4109731F012960C931297139686
:1030F0001C9327C0009347051093480522C0211553
:10310000310519F04217530718F49A01BD01EF0178
:10311000DF01F801DBCF21153105F9F0281B390B50
:103120002430310580F48A819B816115710521F07D
:10313000FB019383828304C09093480580934705E5
:10314000FE01329644C0FE01E20FF31F819391937A
:1031500022503109398328833AC0209145053091A6
:103160004605232B41F42091120230911302309333
:10317000460520934505209110023091110221153A
:10318000310541F42DB73EB740911402509115021C
:10319000241B350BE0914505F0914605E217F30736
:1031A000A0F42E1B3F0B2817390778F0AC014E5FB7
:1031B0005F4F2417350748F04E0F5F1F50934605A9
:1031C000409345058193919302C0E0E0F0E0CF0188
:1031D000DF91CF911F910F910895CF93DF930097C7
:1031E00009F481C0FC01329713821282A091470535
:1031F000B0914805109781F420813181820F931F8F
:1032000020914505309146052817390751F5F0936F
:103210004605E093450567C0ED0120E030E0CE179C
:10322000DF0740F44A815B819E0141155105F1F0B1
:10323000EA01F5CFD383C28340815181840F951F6A
:10324000C817D90759F488819981840F951F029670
:10325000918380838A819B819383828321153105A9
:1032600029F4F0934805E09347053DC0E901FB834D
:10327000EA8349915991C40FD51FEC17FD0761F4FA
:1032800080819181840F951F0296E901998388833B
:10329000828193819B838A83E0E0F0E012968D9196
:1032A0009C911397009719F0FD01DC01F7CF8D91E8
:1032B0009C9111979D012E5F3F4F820F931F20918C
:1032C0004505309146052817390769F4309729F4E8
:1032D000109248051092470502C013821282B093E3
:1032E0004605A0934505DF91CF9108956F927F9297
:1032F0008F929F92AF92BF92CF92DF92EF92FF9206
:103300000F931F93CF93DF93009781F4CB01DF914D
:10331000CF911F910F91FF90EF90DF90CF90BF90D2
:10332000AF909F908F907F906F90BFCEFC01E60F83
:10333000F71F9C0122503109E217F30708F4A5C0DA
:10334000EC01D9010D911C91119706171707A8F0F0
:103350000530110508F497C0C80104978617970730
:1033600008F491C002501109061B170B0193119329
:103370006D937C93CF0131DF86C05B01A01AB10A47
:103380004C01800E911EA0914705B0914805612C1B
:10339000712CE12CF12C109709F446C08D919C9171
:1033A0001197A815B905B1F56C0142E0C40ED11C06
:1033B000CA14DB0478F14C018A189B08640142E0CE
:1033C000C40ED11C1296BC9012971396AC91B5E026
:1033D000CB16D10440F0B282A38391828082D901BE
:1033E0006D937C9309C00E5F1F4F800F911FF901F1
:1033F00091838083EB2DFA2FE114F10431F0D70192
:103400001396FC93EE9312973EC0F0934805E09319
:10341000470539C06816790608F43C017D0112960B
:103420000D90BC91A02DB7CF809145059091460598
:1034300088169906E1F466167706C8F480911002A2
:1034400090911102009741F48DB79EB740911402FC
:1034500050911502841B950BE817F907B0F4F0930F
:103460004605E0934505F901718360830CC0CB01EB
:103470001CDE7C01009749F0A801BE011BD0CE01E3
:10348000ACDEC70104C0CE0102C080E090E0DF9155
:10349000CF911F910F91FF90EF90DF90CF90BF9051
:1034A000AF909F908F907F906F90089581E090E013
:1034B000F89450C0FB01DC0102C001900D92415014
:1034C0005040D8F70895FB01DC018D9101908019DF
:1034D0000110D9F3990B0895FB01DC0101900D92C5
:1034E0000020E1F70895FB01DC014150504030F02D
:1034F0008D910190801919F40020B9F7881B990B60
:103500000895FB01DC014150504048F001900D92BC
:103510000020C9F701C01D9241505040E0F70895C6
:10352000FB0151915523A9F0BF01DC014D914517D5
:103530004111E1F759F4CD010190002049F04D917E
:1035400040154111C9F3FB014111EFCF81E090E03B
:103550000197089511E0C1E3D1E000E005C0802F9C
:10356000FE017EDD2196011DC233D10780E00807F0
:06357000B1F7F894FFCF53
:103576006501650165016501650165016501650115
:10358600000049058000000000000000F801660107
:1035960090014402C1019F01B301000000007906B9
:1035A60066019D02640100000000B302AF02434EB3
:1035B6004320526F7574657200486F6D65205265C1
:1035C600743F203C533E004572726F3A20506C6542
:1035D60061736500436C6F73652074686520436F83
:1035E60076657221004D616368696E6520486F6D6E
:1035F6006500696E2070726F67726573732E2E2E6A
:103606000024002300533D00463D00583D00593D2F
:10361600005A3D00434F4D414E444F5320534552AF
:1036260049414C3A200056414C4F522044452053C4
:103636003A200056414C4F5220444520463A20003D
:1036460056414C4F5220444520583A200056414C92
:103656004F5220444520593A200056414C4F5220A3
:103666004445205A3A2000524F544143414F20537B
:10367600454E5449444F2043573A204D3300524F4C
:10368600544143414F2053454E5449444F204343F0
:10369600573A204D340058206D61696F722071755C
:1036A60065205920002A533A2000583A202020202D
:1036B60000533A20202020004F7665722020547255
:1036C6006176656C00417869733A2000582D005880
:1036D6002B00592D00592B005A2D005A2B005261F0
:1036E6007069646F004D6564696F004C656E746F38
:0436F600000D0A00B9
:00000001FF
